:100000000C9463020C948B020C948B020C94680881
:100010000C9444080C9420080C948B020C948B02D2
:100020000C948B020C948B020C948B020C948B021C
:100030000C948B020C948B020C948B020C948B020C
:100040000C9463030C948B020C94580B0C94320B9D
:100050000C948B020C948B020C948B020C948B02EC
:100060000C94AD030C948B0207634236B79BD8A760
:100070001A39685618AEBAAB558C1D3CB7CC5763CD
:10008000BD6DEDFD753EF6177231BF000000803F7B
:1000900008000000BE922449123EABAAAA2ABECD97
:1000A000CCCC4C3E00000080BEABAAAAAA3E000009
:1000B0000000BF000000803F000000000008417801
:1000C000D3BB4387D1133D190E3CC3BD4282AD2B38
:1000D0003E68EC8276BED98FE1A93E4C80EFFFBE30
:1000E00001C4FF7F3F0000000000005EBCE2613FF2
:1000F000DD83C29C7E20A3FD1F419DC3217FFCA206
:10010000401E5F01E3BD3E6082DC237D9FC1421C37
:10011000FEA0E1BF5D0380DE3C62BEE0025CDF81E9
:10012000633D7C22C09E1D43A1FF4618FAA4277997
:100130009BC584DA3866E5BB5907DB856739BAE4C5
:1001400006581947A5FB7826C49A653BD987045AF7
:10015000B8E6A7F91B45C6987A24F8A6441A99C7A9
:10016000257B3A6486D85B05E7B98CD2306EEDB357
:10017000510F4E10F2AC2F7193CD114FADF3702E85
:10018000CC92D38D6F31B2EC0E50AFF1134DCE90B7
:10019000722C6D33D18F0C52B0EE326C8ED0530D69
:1001A000EFB1F0AE4C1291CF2D73CA947628ABF517
:1001B00017490856B4EA6937D58B5709EBB5366845
:1001C0008AD495CB2977F4AA4816E9B7550B88D677
:1001D000346A2B7597C94A14F6A8742AC896154B29
:1001E000A9F7B6E80A54D7896B350000000024004F
:1001F00027002A0000000008000201000003040795
:10020000000000000000000000C201000100050025
:1002100005000300030000E1000001000F000F00D3
:100220000D000D0000960000020019001A001700D2
:100230001700127A00000700200021001D001D0099
:10024000807000000B002300230020002000004BE2
:10025000000014003700370034003400403800003C
:100260001E004B004B0048004800482600003100AB
:10027000710071006F006F00E42500003100710013
:1002800071006F006F008025000032007200720064
:1002900070007000C01200006E00E900E900E60086
:1002A000E60060090000E500D801D801D501D501BC
:1002B000B0040000D301B403B403B103B103580286
:1002C0000000B40367076707620762072C0100009C
:1002D0006707DD0EDD0EDA0EDA0E2000B0430054A3
:1002E000656D70203400B0430054656D702033009C
:1002F000B0430054656D70203200B0430054656D0A
:1003000070203100342D54656D700020205243540C
:1003100020466F757254656D700020524354204A18
:1003200065746920546F6F6C7300B0430054343AA5
:1003300000B043200054333A00B0430054323A0036
:10034000B043200054313A00202052435420466FDD
:10035000757254656D700020524354204A6574696B
:1003600020546F6F6C7300202052435420466F75E9
:100370007254656D700020524354204A65746920A0
:10038000546F6F6C730000070E091C1B1215383F69
:10039000363124232A2D70777E796C6B6265484F45
:1003A000464154535A5DE0E7EEE9FCFBF2F5D8DF35
:1003B000D6D1C4C3CACD90979E998C8B8285A8AFA5
:1003C000A6A1B4B3BABDC7C0C9CEDBDCD5D2FFF895
:1003D000F1F6E3E4EDEAB7B0B9BEABACA5A28F8805
:1003E000818693949D9A2720292E3B3C35321F18F5
:1003F000111603040D0A5750595E4B4C45426F6865
:10040000616673747D7A898E878095929B9CB1B664
:10041000BFB8ADAAA3A4F9FEF7F0E5E2EBECC1C6C4
:10042000CFC8DDDAD3D4696E676075727B7C5156B4
:100430005F584D4A4344191E171005020B0C212624
:100440002F283D3A33344E49404752555C5B767114
:10045000787F6A6D64633E39303722252C2B060184
:10046000080F1A1D1413AEA9A0A7B2B5BCBB969174
:10047000989F8A8D8483DED9D0D7C2C5CCCBE6E1E4
:10048000E8EFFAFDF4F300000000250028002B003F
:1004900000000000230026002900040404040404D2
:1004A0000404020202020202030303030303010223
:1004B00004081020408001020408102001020408F2
:1004C00010203A14F60F11241FBECFEFD8E0DEBF84
:1004D000CDBF11E0A0E0B1E0EAEEF2E302C005908A
:1004E0000D92AA33B107D9F724E0AAE3B1E001C025
:1004F0001D92A43BB207E1F712E0C2E6D2E004C0CD
:100500002197FE010E944815C136D107C9F70E9404
:1005100029100C9468190C94000085ED8093BC00A0
:100520008091BC0084FDFCCF1092A30108954091FE
:100530007D01262F30E0240F311D21323105DCF4FE
:100540002091A3012430C9F4FC0180E090E08617DB
:1005500058F430917D012191DC01A55ABE4FA30FC3
:10056000B11D2C930196F3CF80917D01680F6093AC
:100570007D0180E0089581E0089582E00895089566
:100580008FEF9FEF08958FEF9FEF089580915A01AD
:1005900090E09195819591090895CF93DF9300D0D4
:1005A000CDB7DEB7CB01642F49835A830E949702EF
:1005B0004981842F5A81952F0F900F90DF91CF9111
:1005C0000895CF93DF931F92CDB7DEB7698361E0C3
:1005D000CE0101960E94970281E090E00F90DF919A
:1005E000CF9108950895DC015196ED91FC915297B9
:1005F000908150968C9180958923808308952091D5
:100600003B0230913C022817390781F4909139025E
:1006100080913A02981751F0E0913902F0E0E65CDF
:10062000FE4F8081082E000C990B08958FEF9FEFED
:10063000089520913B0230913C022817390739F484
:100640008FB7F89410923A02109239028FBF089532
:1006500020913B0230913C022817390769F48091C0
:100660003A022091390290E08096821B910960E263
:1006700070E00E94201508958FEF9FEF089520915C
:100680003B0230913C0228173907B9F490913902A6
:1006900080913A029817A1F0E0913902F0E0E65C0F
:1006A000FE4F80812091390230E02F5F3F4F2F7144
:1006B00033272093390290E008958FEF9FEF08953C
:1006C0008EEF9FEF08951F920F920FB60F92112495
:1006D0002F933F938F939F93AF93BF938091CA01C2
:1006E0009091CB01A091CC01B091CD013091C90185
:1006F00026E0230F2D3720F40296A11DB11D05C061
:1007000029E8230F0396A11DB11D2093C9018093F1
:10071000CA019093CB01A093CC01B093CD018091FD
:10072000CE019091CF01A091D001B091D10101965D
:10073000A11DB11D8093CE019093CF01A093D00154
:10074000B093D101BF91AF919F918F913F912F9124
:100750000F900FBE0F901F9018951F920F920FB61B
:100760000F9211242F933F934F935F936F937F9337
:100770008F939F93AF93BF93EF93FF938091B900B3
:10078000887F803609F49CC068F5883209F45BC024
:1007900090F4803109F454C038F4882309F4F6C089
:1007A000883009F44DC0F6C0883109F44CC080325D
:1007B00009F45DC0EFC0803409F468C048F48033A8
:1007C00009F455C0883309F0E5C08093A201D8C070
:1007D000803509F44FC0883509F45DC0883409F0CC
:1007E000D9C0D6C0883909F4C7C0A8F4883709F43D
:1007F00067C038F4883609F463C0803709F460C0F4
:10080000C9C0883809F4B8C0803909F45FC080389D
:1008100009F0C0C05BC0803B09F486C038F4803A60
:1008200009F466C0883A09F47FC0B4C0803C09F47A
:10083000A7C0883C09F4A4C0883B09F48AC0AAC0B8
:100840008091C80110C09091C7018091C60198178E
:1008500070F5E091C70181E08E0F8093C701F0E051
:10086000EA55FE4F80818093BB0085EC86C0809363
:10087000A2018EC0E091C70181E08E0F8093C70175
:100880008091BB00F0E0EA55FE4F80839091C70154
:100890008091C6016EC0E091C70181E08E0F809308
:1008A000C7018091BB00F0E0EA55FE4F8083809144
:1008B000A50181116DC081E08093A40184EA61C02B
:1008C00083E08093A3011092A101CFCF8091A10179
:1008D000803208F051C0E091A10181E08E0F809339
:1008E000A1018091BB00F0E0EF57FE4F8083BDCFA8
:1008F00085EC8093BC001092A3018091A10180320D
:1009000030F4E091A101F0E0EF57FE4F10826091CA
:10091000A10170E0E0917F01F091800181E891E018
:1009200009951092A10136C084E08093A301109232
:100930007E0110927D01E0917B01F0917C0109958F
:1009400080917D01811105C081E080937D0110922D
:100950005B01E0917E0181E08E0F80937E01F0E0EB
:10096000E55AFE4F80818093BB0090917E0180917B
:100970007D01981708F479CF85E88093BC000AC000
:1009800085EC8093BC001092A30104C01092A201D8
:100990000E948D02FF91EF91BF91AF919F918F9136
:1009A0007F916F915F914F913F912F910F900FBE6B
:1009B0000F901F901895DC01E0E0615038F08D91A8
:1009C000E827F0E0E651FF4FE491F7CF8E2F08952E
:1009D000FC0190810180F281E02DF8948181892BC6
:1009E00081832281892F809528232283A2E0B0E091
:1009F0001197F1F7218182238183A0E1B0E0119763
:100A0000F1F780817894E6E6F0E03197F1F79823EA
:100A100081E009F480E00895FC0190810180F28179
:100A2000E02D892F809560FF12C0F89422818223E7
:100A300082838181892B8183A0E1B0E01197F1F756
:100A40008281982B928378948AE690E011C0F89482
:100A50002281822382838181892B8183AEE7B0E06A
:100A60001197F1F78281982B9283789486E090E039
:100A70000197F1F70895CF92DF92EF92FF920F93D3
:100A80001F93CF93DF931F92CDB7DEB76C01E62E95
:100A900008E010E0FF24F39461E08F2D8E2109F42B
:100AA00060E0C60149830E940C05FF0C015011094A
:100AB00049810115110581F7411115C0F894D6013E
:100AC0001196ED91FC91129791818C9180958923DB
:100AD00081831196ED91FC91129792818C91809572
:100AE0008923828378940F90DF91CF911F910F918A
:100AF000FF90EF90DF90CF900895CF92DF92EF922A
:100B0000FF920F931F93CF93DF931F92CDB7DEB762
:100B10008C01F62E40E065E579830E943B05CF2CE1
:100B20007981D72E760188E0E80EF11CF6016191FB
:100B30006F0140E0C8010E943B05CE14DF04B1F70D
:100B40000F90DF91CF911F910F91FF90EF90DF9069
:100B5000CF900895FC0190810180F281E02DF894FE
:100B60008181292F20958223818378948DE781507C
:100B700009F130813923D9F3F89482818223828369
:100B80008181892B81837894ACEBB3E01197F1F7E5
:100B9000F894818128232183A8E8B0E01197F1F728
:100BA0008081982381E009F080E07894E0E3F3E02D
:100BB0003197F1F708956F927F928F929F92AF9243
:100BC000BF92CF92DF92EF92FF920F931F93CF933A
:100BD000DF9300D0CDB7DEB78C017A01FC018581AF
:100BE000968169837A830E94AA0569817A81882324
:100BF00091F1F801858196810E947D0540E06EEBC0
:100C0000F801858196810E943B0537015701F9E083
:100C1000AF0EB11CF8018580968088E0C82ED12CDB
:100C2000EE24E394F12CC4010E94E8048111FE2813
:100C3000EE0CF1E0CF1AD108B1F7F301F1923F01C8
:100C4000EA15FB0539F7F801858196810E94AA050E
:100C500091E0813009F090E0892F0F900F90DF91A3
:100C6000CF911F910F91FF90EF90DF90CF90BF90A9
:100C7000AF909F908F907F906F900895CF93DF9368
:100C8000CDB7DEB729970FB6F894DEBF0FBECDBF44
:100C9000AE014F5F5F4F0E94DB05882341F068E0A3
:100CA000CE0101960E94DB049985891711F080E03E
:100CB00012C08D818F3311F48AE00DC0803420F48E
:100CC0008F31A9F789E007C08F3521F08F3779F789
:100CD0008CE001C08BE029960FB6F894DEBF0FBE02
:100CE000CDBFDF91CF910895EF92FF920F931F93A5
:100CF000CF93DF93CDB7DEB761970FB6F894DEBF21
:100D00000FBECDBF8C01DC011596ED91FC911697BD
:100D1000138615861486DF011B9633961E92AE1736
:100D2000BF07E1F7F8011482EE24E394BE01665F89
:100D30007F4FD80115968D919C9116970E943F0F79
:100D4000882309F464C067E0CE010A960E94DB04A0
:100D500099898913EBCFD8018C91811126C0159602
:100D60008D919C9116970E94AA05BE01665F7F4FE8
:100D7000F801858196810E947D0540E064EBD801F1
:100D800015968D919C9116970E943B05F8018581DF
:100D900096810E94E804F82ED80115968D919C91B9
:100DA00016970E94AA05FF2059F1AE014F5F5F4FD1
:100DB000BE01665F7F4FC8010E94DB05F801F1802C
:100DC0008A85803101F1BE01665F7F4FC8010E94B4
:100DD0003E068F1520F4D80111968C910BC08A85A0
:100DE000803111F48CE006C0BE01665F7F4FC80100
:100DF0000E943E06F801818384818F5F848396CFB1
:100E0000F801E082D2CFFCE0FF1528F3EBCF61962A
:100E10000FB6F894DEBF0FBECDBFDF91CF911F910B
:100E20000F91FF90EF9008950F931F93CF93DF934F
:100E3000EC01162F60E0812F0E94D60B612F70E02D
:100E4000FB01E255FB4FE491E883FB01E656FB4FC3
:100E5000E491F0E0EE0FFF1FE057FB4F8591949176
:100E60009A8389831B861D861C86FE013B968E0114
:100E70000D5F1F4F1292E017F107E1F7DF91CF915D
:100E80001F910F91089520E001972FEF8F3F920758
:100E9000D9F70895CF92DF92EF92FF920F931F93AD
:100EA000CF93DF93EC01898D9A8D009729F421E08F
:100EB00030E03B832A8364C0FFB6F89428E030E03A
:100EC00090E081E0482F462309F09F5F880F215072
:100ED0003109C1F78E8D81119F5FE62E192F109574
:100EE000CE010E94F302898D9A8D04960E944307D9
:100EF00088E0C82ED12C01E0802F8E2139F0E989BD
:100F0000FA8990818889892B808303C0CE010E9451
:100F1000F302898D9A8D0E944307000F81E0C81A61
:100F2000D10851F78E8D882339F0E989FA899081AB
:100F30008889892B808303C0CE010E94F302898DAA
:100F40009A8D0E94430710FF07C0E989FA899081B2
:100F50008889892B808303C0CE010E94F302898D8A
:100F60009A8D0E944307E989FA8990818889892BA3
:100F70008083FFBE8B8D9C8D0E94430781E090E0B3
:100F8000DF91CF911F910F91FF90EF90DF90CF9065
:100F90000895EF92FF920F931F93CF93DF93C09129
:100FA0003B02D0913C02209709F443C08B899C8975
:100FB0000E94430788E0E82EF12C10E001E08D89C3
:100FC0009E890E944307EE85FF8590818D85892348
:100FD00011F0102B03C0802F80951823000F81E0A3
:100FE000E81AF10861F78D899E890E9443078F896D
:100FF000988D0E94430780913A022091390290E037
:1010000001968F71992730E08217930779F0E0916C
:101010003A02F0E0E65CFE4F108380913A0290E0E5
:1010200001968F71992780933A0203C08D8D81605C
:101030008D8FDF91CF911F910F91FF90EF900895C9
:101040001F920F920FB60F9211242F933F934F933D
:101050005F936F937F938F939F93AF93BF93EF9320
:10106000FF930E94C907FF91EF91BF91AF919F91AC
:101070008F917F916F915F914F913F912F910F9041
:101080000FBE0F901F9018951F920F920FB60F92E0
:1010900011242F933F934F935F936F937F938F937D
:1010A0009F93AF93BF93EF93FF930E94C907FF9164
:1010B000EF91BF91AF919F918F917F916F915F91D0
:1010C0004F913F912F910F900FBE0F901F90189549
:1010D0001F920F920FB60F9211242F933F934F93AD
:1010E0005F936F937F938F939F93AF93BF93EF9390
:1010F000FF930E94C907FF91EF91BF91AF919F911C
:101100008F917F916F915F914F913F912F910F90B0
:101110000FBE0F901F901895CF93DF93C0E0D0E0E3
:101120008091040490E0C817D907ECF4209761F08F
:101130000197C817D90741F081E02091020430914E
:101140000304C217D30709F480E0FE01E25BFC4F01
:1011500060818093230485E094E00E944A07109206
:1011600023042196DDCFDF91CF910895CF92DF92B6
:10117000EF92FF920F931F93CF93DF936C017A014D
:101180008B01C0E0D0E0CE15DF0589F0D8016D916C
:101190008D01D601ED91FC910190F081E02DC60109
:1011A0000995892B11F47E0102C02196ECCFC7016D
:1011B000DF91CF911F910F91FF90EF90DF90CF9033
:1011C0000895FC01918D828D981761F0828DDF0169
:1011D000A80FB11D5D968C91928D9F5F9F73928F2A
:1011E00090E008958FEF9FEF0895FC01918D828D1F
:1011F000981731F0828DE80FF11D858D90E00895EC
:101200008FEF9FEF0895FC01918D228D892F90E043
:10121000805C9F4F821B91098F73992708958DE3FE
:1012200092E00E94030921E0892B09F420E0822F3B
:101230000895FC01848DDF01A80FB11DA35ABF4F93
:101240002C91848D90E001968F739927848FA689C5
:10125000B7892C93A089B1898C9180648C93938DEC
:10126000848D981306C00288F389E02D80818F7DDC
:1012700080830895EF92FF920F931F93CF93DF9394
:10128000EC0181E0888F9B8D8C8D981305C0E889D7
:10129000F989808185FD24C0F62E0B8D10E00F5F4B
:1012A0001F4F0F731127E02E8C8DE8120CC00FB664
:1012B00007FCFACFE889F989808185FFF5CFCE0157
:1012C0000E941909F1CF8B8DFE01E80FF11DE35A41
:1012D000FF4FF0820B8FEA89FB898081806207C013
:1012E000EE89FF896083E889F98980818064808341
:1012F00081E090E0DF91CF911F910F91FF90EF90EF
:101300000895CF93DF93EC01888D8823C9F0EA8993
:10131000FB89808185FD05C0A889B9898C9186FDEE
:101320000FC00FB607FCF5CF808185FFF2CFA889EB
:10133000B9898C9185FFEDCFCE010E941909E7CFC5
:10134000DF91CF91089580E090E0892B29F00E94F1
:101350000F0981110C94000008953FB7F894809113
:10136000CE019091CF01A091D001B091D10126B5CD
:10137000A89B05C02F3F19F00196A11DB11D3FBFCD
:10138000BA2FA92F982F8827820F911DA11DB11D5B
:10139000BC01CD0143E0660F771F881F991F4A9556
:1013A000D1F708958F929F92AF92BF92CF92DF9222
:1013B000EF92FF926B017C010E94AD094B015C0131
:1013C000C114D104E104F104F1F00E94AD09DC0183
:1013D000CB0188199909AA09BB09883E9340A10548
:1013E000B10570F321E0C21AD108E108F10888EED6
:1013F000880E83E0981EA11CB11CC114D104E10425
:10140000F10419F7DDCFFF90EF90DF90CF90BF9000
:10141000AF909F908F9008952FB7F8946091CA0174
:101420007091CB018091CC019091CD012FBF089597
:101430000F931F93CF93DF93CDB7DEB761970FB6AE
:10144000F894DEBF0FBECDBF8C01BE01665F7F4F3B
:101450000E94CF0F811105C060E070E08EEF92EC2A
:1014600055C0AE014F5F5F4FBE01665F7F4FC80141
:101470000E94DB05882309F446C068E0CE0101968E
:101480000E94DB04998589133EC0698188E0689FCA
:10149000B00111248A81282F30E0322F2227330F08
:1014A000330F330F262B372B8A85803151F5688512
:1014B00070E08F81AB01481B5109CA019695982FA6
:1014C0008827979587950E94201560517109207F84
:1014D00053E0220F331F5A95E1F7620F731F6138F3
:1014E00054EE75070CF4B8CF072E000C880B990B3F
:1014F0000E946A1620E030E040E05CE30E941F1783
:1015000005C0B901ECCF60E874EEE9CF61960FB683
:10151000F894DEBF0FBECDBFDF91CF911F910F9129
:1015200008954F925F926F927F928F929F92AF92A7
:10153000BF92EF92FF920F931F93CF93DF93CDB79C
:10154000DEB761970FB6F894DEBF0FBECDBF7C014A
:10155000BE01665F7F4F0E94CF0F8A85803159F0B0
:10156000BE01665F7F4FC7010E943E06182F8111A2
:1015700003C000E05FC01CE0F701858196810E94F6
:10158000AA058823B1F3BE01665F7F4FF70185810D
:1015900096810E947D05F701408164E485819681F2
:1015A0000E943B05F7010281002309F440C0195055
:1015B000133048F4E12FF0E0EE0FFF1FEC5FFE4F19
:1015C0008080918004C08EEE882E82E0982EF701F4
:1015D0001381112329F18081811122C00E940C0AFC
:1015E0002B013C01092C000CAA08BB08AE014F5F7F
:1015F0005F4FBE01665F7F4FC7010E94DB05898197
:10160000811117C00E940C0ADC01CB0188199909CD
:10161000AA09BB0984159505A605B70538F309C0C5
:10162000B401990C880B990B0E94D20903C001E008
:1016300001C0012F802F61960FB6F894DEBF0FBE58
:10164000CDBFDF91CF911F910F91FF90EF90BF9091
:10165000AF909F908F907F906F905F904F90089584
:101660000E9411191F920F920FB60F9211242F93FF
:101670003F934F935F936F937F938F939F93AF931A
:10168000BF93EF93FF938DE392E00E941909FF91BE
:10169000EF91BF91AF919F918F917F916F915F91EA
:1016A0004F913F912F910F900FBE0F901F90189563
:1016B0001F920F920FB60F9211242F938F939F9327
:1016C000EF93FF93E0914D02F0914E028081E09103
:1016D0005302F091540282FD12C090818091560213
:1016E0008F5F8F7320915702821751F0E09156025D
:1016F000F0E0E35CFD4F958F8093560201C080813E
:10170000FF91EF919F918F912F910F900FBE0F90AE
:101710001F90189590E0FC01EC50FE4F3491FC01B5
:10172000E255FB4F2491FC01E656FB4FE491EE237A
:1017300009F43BC0332339F1333091F038F43130C0
:10174000A9F0323001F584B58F7D12C0373091F0A9
:101750003830A1F03430B9F4809180008F7D03C01F
:10176000809180008F77809380000DC084B58F7743
:1017700084BD09C08091B0008F7703C08091B00014
:101780008F7D8093B000F0E0EE0FFF1FEA57FB4F14
:10179000A591B4918FB7F894EC91611103C0209595
:1017A0002E2301C02E2B2C938FBF0895CF93DF9350
:1017B00090E0FC01E255FB4F2491FC01E656FB4F03
:1017C0008491882361F190E0880F991FFC01E65114
:1017D000FE4FC591D491FC01EA57FB4FA591B491FE
:1017E000611109C09FB7F89488812095822388836E
:1017F000EC912E230BC0623061F49FB7F8943881CE
:10180000822F809583238883EC912E2B2C939FBF6E
:1018100006C08FB7F894E8812E2B28838FBFDF9105
:10182000CF91089580913B0290913C028550944065
:10183000A1F0809122048E7F809322048FB7F894C8
:1018400010923A021092390225E034E030933C02C3
:1018500020933B028FBF81E0089580E008952F928E
:101860003F924F925F926F927F928F929F92AF9230
:10187000BF92CF92DF92EF92FF920F931F93CF937D
:10188000DF9300D000D0CDB7DEB72B013C0120E0C4
:1018900030E0A9010E94BB1587FF05C020E030E0C1
:1018A00040E05FEB04C020E030E040E05FE3C301D4
:1018B000B2010E944F156B017C0120E030E0A901CC
:1018C000C301B2010E94BB1587FF04C0F7FAF09470
:1018D000F7F8F094A12CB12C8DEC282E9CEC392E2D
:1018E0008CEC8B839DE39C8320E030E040E251E46C
:1018F000B1018B819C810E941F174B018C01A701B4
:1019000096010E94BB1518163CF0AFEFAA1ABA0A4E
:1019100014010B831C83E8CF20E030E0A901C30150
:10192000B2010E94BB1587FF06C08DE28093290299
:1019300001E010E002C000E010E0A114B10439F4AD
:10194000F801E75DFD4F80E380830F5F1F4F812C1F
:10195000912CF401E00FF11FFA83E9838A149B04B0
:10196000B1F191014B815C81C701B6010E94C015A4
:101970000E9432162B013C0169817A81675D7D4F9F
:101980004AE0C2010E943319B201550C880B990B31
:101990000E946A1691014B815C810E941F179B0176
:1019A000AC01C701B6010E944E156B017C0120E01D
:1019B00030E040E251E4B1018B819C810E94C0156E
:1019C0001B018B839C83BFEF8B1A9B0AC2CFE75D01
:1019D000FD4F108289E292E00F900F900F900F90D0
:1019E000DF91CF911F910F91FF90EF90DF90CF90FB
:1019F000BF90AF909F908F907F906F905F904F902F
:101A00003F902F900895A9E0B2E020E040E250E13D
:101A10005A0F21111FC0FC0134913323D9F03C939C
:101A2000119601965A13F5CF80E090E020E030E265
:101A3000DC01A75FBD4F211110C0FB01E80FF91FAA
:101A4000E491EE2351F05096EC930196803191058C
:101A500079F708954C9321E0E3CF50963C9321E031
:101A6000F4CF2F923F924F925F926F927F928F921C
:101A70009F92AF92BF92CF92DF92EF92FF920F931D
:101A80001F93CF93DF93CDB7DEB7A0970FB6F8942F
:101A9000DEBF0FBECDBF90914C039923C9F02EE756
:101AA00020934E0322E920934F0323E22093500317
:101AB0009093510390910301992311F0915003C029
:101AC00010924C0396E09093030104E010E002C0F2
:101AD00000E010E090914C03911197C19EE7909324
:101AE0004E039FE990934F031092500398E1909317
:101AF000510394EA909352039CEA9093530397E026
:101B000090935403109255038111E8C080E48093B0
:101B1000500370904D038090DA029090DB0208E051
:101B200010E0612CD62CD70CED2DF0E0E815F9056E
:101B30000CF0C7C0DF01AA0FBB1FA45DBC4FAD9066
:101B4000BC90A114B10409F4B8C0D29430EFD322F0
:101B5000C80186529D4F7C01DC01AC58BF4FDC921E
:101B6000E45EFC4FC080CC2021F093E09C1590F106
:101B700004C0D5016D917C9130C06C2D70E080E087
:101B800090E00E9468169B01AC0160E070E080E28A
:101B900091E40E948C17F5012081318142815381AB
:101BA0000E941F171B012C0120E030E0A9010E94B8
:101BB0001A1720E030E040E05FE387FD05C0C20176
:101BC000B1010E944F1504C0C201B1010E944E151F
:101BD0000E943216F3E0FC15B0F0F701EC58FF4F0D
:101BE0008D2D816080837F79D12C20E2C29ED02C04
:101BF000CC2411246C297D29319660833196708321
:101C00000D5F1F4F5AC084E0C81211C0F701EC5895
:101C1000FF4F8D2D846080833196D5018C91808318
:101C2000319611968C9180833196108219C0B5E05F
:101C3000CB1219C0F701EC58FF4F8D2D85608083C2
:101C4000F5018281F701EB58FF4F8083D501119692
:101C50008C9111973196808331968C918F7180830E
:101C60000C5F1F4F2AC0B9E0CB1227C0F701EC5818
:101C7000FF4F8D2D89608083F5018381F701EB583B
:101C8000FF4F8083D50112968C91129731968083F5
:101C900011968C911197319680838C91F801EE5AB0
:101CA000FC4F80838C91853421F08E3421F4108296
:101CB00002C0B0E2B0830B5F1F4F6394E6E06E1288
:101CC00031CF86E0870D282F30E0281539051CF428
:101CD00080934D037BC010924D0378C0E0910802C1
:101CE000F0E0EE0FFF1FE452FD4F608171817E0135
:101CF000F1E1EF0EF11CC7010E942C19E0910802DE
:101D0000F0E0EE0FFF1FE450FD4F608171818E0106
:101D10000F5F1F4FC8010E942C1980910802809309
:101D20005603F70101900020E9F73197EE19FF09FA
:101D3000EE0FEE0FEE0FD8010D900020E9F711978E
:101D4000A01BB10BA370EA2BE0935703D7012AE045
:101D500030E0F70101900020E9F73197AF014E190B
:101D60005F09F901EC58FF4FBD016E197F09641737
:101D7000750738F49D91E652FD4F90832F5F3F4FDA
:101D8000E8CFE652FD4FA801201B310BB901640FCB
:101D9000751FD8010D900020E9F71197A01BB10B1A
:101DA0007A01E01AF10AEA16FB0628F4DA019D919D
:101DB000AD019193EBCF8B018F5F90E06091DA02E0
:101DC0007091DB020E9420158093080280915003DD
:101DD0009EEF900F892B8093500322E0E0E0822F4A
:101DE00090E0801791075CF4DC01A25BBC4F8C9102
:101DF000E827F0E0EA57FC4FE4912F5FF0CFD801DD
:101E0000A25BBC4FEC930F5F1F4FC80186529D4FE2
:101E1000FC01EC58FF4F2EEF208310930304009336
:101E20000204D801A15BBC4FE9E0F2E020E22E0FF2
:101E300031913D932E13FCCFFC01EB56FF4F8FEFFA
:101E400080830E5D1F4F0093040481E0A0960FB6BF
:101E5000F894DEBF0FBECDBFDF91CF911F910F91E0
:101E6000FF90EF90DF90CF90BF90AF909F908F90BA
:101E70007F906F905F904F903F902F900895AF921A
:101E8000BF92CF92DF92EF92FF920F931F93CF9367
:101E9000DF931F92CDB7DEB75C01D62EE72EFC0193
:101EA0008585811105C0C5010E94AA05811106C062
:101EB000F50113861586148680E065C040E060EF6A
:101EC000C5010E943B0501E0F12CC12C11E0C501C8
:101ED0000E94E804682FC50169830E94E8046981B3
:101EE000613019F48130B9F433C04F2D50E06813DC
:101EF0001BC0F5018385181730F4E40FF51F8381AB
:101F0000802349F402C0181731F060E0193058F40A
:101F1000F501148708C0F501EF0DF11D8381802BB9
:101F2000838361E009C0C12EF501E40FF51F9381A1
:101F3000802F809589238383C5010E940C051F5F34
:101F4000000F11F4F39401E0F7E0FF1508F0BFCFA4
:101F5000113408F4ADCFF501C386C11002C081E091
:101F60008587F5018381882309F4A2CFD5011396D3
:101F7000ED2DFE2D9501255F3F4F8D918193A21789
:101F8000B307D9F781E00F90DF91CF911F910F91A7
:101F9000FF90EF90DF90CF90BF90AF900895CF93D8
:101FA000DF93EB01DC011596ED91FC9116971386FA
:101FB00015861486DF011B9633961E92AE17BF0757
:101FC000E1F7BE01FC01858196810E943F0F8823C5
:101FD00049F067E0CE010E94DB049F81891302C0B3
:101FE00081E001C080E0DF91CF9108958EE291E021
:101FF000909306048093050420911104263140F546
:10200000283028F02E3030F0ECE6F0E005C0EDE6A8
:10201000F0E002C0EBE6F0E03081283038F481E0F7
:1020200090E001C0880F2A95EAF70FC0422F50E0D8
:102030002E3018F44850510902C04E50510981E029
:1020400090E001C0880F4A95EAF78095832380834A
:102050000895789484B5826084BD84B5816084BD20
:1020600085B5826085BD85B5816085BD80916E0036
:10207000816080936E001092810080918100826067
:1020800080938100809181008160809381008091A4
:1020900080008160809380008091B1008460809393
:1020A000B1008091B00081608093B00080917A008F
:1020B000846080937A0080917A00826080937A00B5
:1020C00080917A008E7F80937A0080917A00806878
:1020D00080937A001092C100E0914D02F0914E027F
:1020E00082E08083E0914902F0914A021082E091FF
:1020F0004B02F0914C0287E6808310925502E091EA
:102100005102F091520286E08083E0914F02F091FB
:102110005002808180618083E0914F02F0915002F3
:10212000808188608083E0914F02F091500280812D
:1021300080688083E0914F02F091500280818F7D12
:1021400080831092000161E08DE00E94D60B61E077
:102150008DE00E948A0B8DE594E00E9474068AE46B
:1021600094E00E94740687E394E00E94740684E27F
:1021700094E00E94740661E083E00E94D60B109206
:1021800021041092200410921F0410921E04109239
:102190001D0410921C0410921B0410921A04109239
:1021A00019041092180488E092E020E030E0FC016D
:1021B0004591559165917491443E55426105710573
:1021C00009F034C04EE0429FC001439F900D11249E
:1021D000FC01E45FFD4F2591349130931904209365
:1021E0001804FC01E25FFD4F2591349130931B04EC
:1021F00020931A04FC01E05FFD4F25913491309348
:102200001D0420931C04FC01EE5EFD4F25913491CA
:1022100030931F0420931E04FC01EC5EFD4F85915A
:102220009491909321048093200407C02F5F3F4F27
:102230000E962F30310509F0BACF80911C04909191
:102240001D04892B09F446C0909111049631E0F5E4
:1022500020916800983050F031E09E3008F430E072
:1022600081E001C0880F3A95EAF701C084E0822B33
:1022700080936800983038F09E3040F0963148F4F2
:10228000ECE6F0E008C0EDE6F0E005C0EBE6F0E0DB
:1022900002C0E0E0F0E04081983030F481E001C01D
:1022A000880F9A95EAF70EC0292F30E09E3018F477
:1022B0002850310902C02E50310981E001C0880F39
:1022C0002A95EAF7842B808380911E0490911F0445
:1022D0000E9443070E94120C6BE073E08AE193E0D6
:1022E0000E94030D84E093E09093DD028093DC0272
:1022F0008AED92E09093FD028093FC028091DA02D5
:102300009091DB029C012F5F3F4FF901EE0FFF1F01
:10231000E452FD4F4DEF52E051834083FC01EE0F3C
:10232000FF1FE250FD4F4AEF52E051834083FC0112
:10233000EE0FFF1FE25DFC4F11821082F901E45E97
:10234000FC4F1082AC014D5F5F4FFA01EE0FFF1F93
:10235000E652FD4F23EF32E031832083FC01EE0F84
:10236000FF1FE050FD4F20EF32E031832083FC015E
:10237000EE0FFF1FE05DFC4F11821082FC01E25E58
:10238000FC4F10829C012C5F3F4FF901EE0FFF1FA5
:10239000E652FD4F69EE72E071836083FC01EE0F3F
:1023A000FF1FEE5FFC4F66EE72E071836083FC01FD
:1023B000EE0FFF1FEE5CFC4F11821082FA01E45E0B
:1023C000FC4F10824E5F5F4FFA01EE0FFF1FE65287
:1023D000FD4F6FED72E071836083FC01EE0FFF1F14
:1023E000EC5FFC4F6CED72E071836083880F991F86
:1023F000FC01EC5CFC4F11821082F901E45EFC4FA1
:1024000010825093DB024093DA0284E092E09093D2
:102410002F0380932E0381E080931D0320E032E0A0
:10242000309331032093300380931E032CEF31E06F
:10243000309333032093320380931F0328EF31E05E
:1024400030933503209334038093200381E00E946E
:10245000310D0E948C0864E170E080E090E00E9401
:10246000D209809108028111F1CF60E08DE00E94D5
:102470008A0BC1E0D0E002EE11E080E2F82E8DE59B
:1024800094E00E94910A8AE494E00E94910A87E312
:1024900094E00E94910A84E294E00E94910A8DE502
:1024A00094E00E94180A60930402709305028093DE
:1024B0000602909307028AE494E00E94180A60934F
:1024C000000270930102809302029093030287E35B
:1024D00094E00E94180A6093FC017093FD018093C0
:1024E000FE019093FF0184E294E00E94180A4B01E0
:1024F0005C016093F8017093F9018093FA01909365
:10250000FB0120E030E04EEF52EC6091040270914C
:10251000050280910602909107020E94BB1581116D
:1025200008C0109204021092050210920602109246
:10253000070220E030E04EEF52EC60910002709113
:10254000010280910202909103020E94BB15811149
:1025500008C0109200021092010210920202109222
:10256000030220E030E04EEF52EC6091FC017091EC
:10257000FD018091FE019091FF010E94BB15811128
:1025800008C01092FC011092FD011092FE01109201
:10259000FF0120E030E04EEF52ECC501B4010E9493
:1025A000BB15811108C01092F8011092F901109228
:1025B000FA011092FB010E940C0A0E948C080E94F2
:1025C0000C0A4B015C0160E083E00E94D60B62E0E4
:1025D00084E00E94D60B0E94120C85E094E00E94D9
:1025E000190385E094E00E942803892B61F40E947E
:1025F0000C0ADC01CB0188199909AA09BB090697C5
:10260000A105B10570F385E094E00E942803181637
:102610001906F4F585E094E00E943F032091010142
:10262000309102012817390799F1909302018093A4
:1026300001012091F6013091F70180379105A1F059
:10264000803E910529F52330310511F12F5F3F4F71
:102650003093F7012093F60122303105C9F410922E
:10266000F7011092F60114C02330310589F02230B1
:10267000310529F4D093F701C093F60109C0215028
:1026800031093093F7012093F601243031053CF7EE
:102690008091F6019091F7018330910509F4C5C04E
:1026A0001092F5011092F401009709F48DC0019782
:1026B00009F0C1C01092E2011092D20164E473E00B
:1026C00082EE91E00E942119109229026091040289
:1026D0007091050280910602909107020E942F0CD2
:1026E00069E272E082EE91E00E94161960E473E004
:1026F00082EE91E00E9421196CE373E082EE91E09A
:102700000E94211910922902609100027091010229
:1027100080910202909103020E942F0C69E272E004
:1027200082EE91E00E94161969E373E082EE91E077
:102730000E94211965E373E082ED91E00E94211966
:10274000109229026091FC017091FD018091FE01BF
:102750009091FF010E942F0C69E272E082ED91E0FE
:102760000E94161961E373E082ED91E00E94211945
:102770006DE273E082ED91E00E942119109229022E
:102780006091F8017091F9018091FA019091FB013B
:102790000E942F0C69E272E082ED91E00E9416190E
:1027A0006AE273E082ED91E00E942119F801019044
:1027B0000020E9F73197E25EF1404E2F22EE31E042
:1027C000A9E0B2E080E005C067E673E086E793E049
:1027D00030C0841720F4F90190819C9301C0FC92D1
:1027E0008F5F2F5F3F4F1196803199F7E2EDF1E057
:1027F00001900020E9F73197E25DF1404E2F80E033
:1028000090E0DC01A75FBD4F841740F49C012E527D
:102810003E4FF901208150962C9302C05096FC92B5
:1028200001968031910569F706C068E473E087E599
:1028300093E00E94030D8091F2019091F3010196C3
:102840009093F3018093F201059744F081E00E9498
:10285000310D1092F3011092F20103C080E00E944A
:10286000310D0E940C0A61E084E00E94D60B0E94A8
:10287000A30905CECF92DF92EF92FF92CF93DF9321
:10288000EDE3F2E01382128288EEC82E83E0D82EA8
:10289000E12CF12CC482D582E682F7828EE091E0B1
:1028A0009183808385EC90E09587848784EC90E029
:1028B0009787868780EC90E0918B808B81EC90E00D
:1028C000938B828B82EC90E0958B848B86EC90E0EE
:1028D000978B868B118E128E138E148EE8EAF4E09D
:1028E00013821282C482D582E682F7828EE191E061
:1028F0009183808366E08AE994E00E94140767E090
:102900008CE894E00E94140768E08EE794E00E944F
:10291000140769E080E794E00E941407EDE5F4E015
:1029200022EF32E0328B218B8AE994E09683858313
:102930001482108299E0918381E082838383EAE4A8
:10294000F4E0328B218B4CE854E0568345831482AB
:102950001082918382838383E7E3F4E0328B218BBF
:102960004EE754E05683458314821082918382831C
:102970008383E4E2F4E0328B218B20E734E036837A
:10298000258314821082918382838383C5E0D4E0FF
:102990001B821A82CC82DD82EE82FF828EE291E07F
:1029A000998388831C8A1B8A1E8A1D8A188E1F8A17
:1029B0001A8E198E1C8E1B8EE2E2F4E080818E7FCF
:1029C000808361E084E00E94D60B61E084E00E9495
:1029D0008A0BE2EBF4E0E491E88BEEE9F4E0E491B9
:1029E000F0E0EE0FFF1FEA57FB4F859194919A8B11
:1029F000898B62E083E00E94D60B83E08C87E1EB59
:102A0000F4E0E491ED87EDE9F4E0E491F0E0EE0F1D
:102A1000FF1FE057FB4F859194919F878E871092FF
:102A20004C031092DB021092DA021092040410920E
:102A30004D03DF91CF91FF90EF90DF90CF900895FD
:102A400097FB072E16F4009407D077FD09D00E945B
:102A5000341507FC05D03EF4909581959F4F08955D
:102A6000709561957F4F0895AA1BBB1B51E107C06C
:102A7000AA1FBB1FA617B70710F0A61BB70B881F0E
:102A8000991F5A95A9F780959095BC01CD0108959D
:102A9000EE0FFF1F0590F491E02D09945058BB27CD
:102AA000AA270E9466150C94E0160E94D21638F0F0
:102AB0000E94D91620F039F49F3F19F426F40C94A3
:102AC000CF160EF4E095E7FB0C94C916E92F0E948F
:102AD000F11658F3BA17620773078407950720F0B9
:102AE00079F4A6F50C9413170EF4E0950B2EBA2F7B
:102AF000A02D0B01B90190010C01CA01A001112404
:102B0000FF27591B99F0593F50F4503E68F11A16AF
:102B1000F040A22F232F342F4427585FF3CF469540
:102B200037952795A795F0405395C9F77EF41F1662
:102B3000BA0B620B730B840BBAF09150A1F0FF0F2C
:102B4000BB1F661F771F881FC2F70EC0BA0F621F18
:102B5000731F841F48F4879577956795B795F79508
:102B60009E3F08F0B0CF9395880F08F09927EE0F9D
:102B70009795879508950E94A51608F481E0089519
:102B80000E94D4150C94E0160E94D91658F00E94A9
:102B9000D21640F029F45F3F29F00C94C916511168
:102BA0000C9414170C94CF160E94F11668F3992315
:102BB000B1F3552391F3951B550BBB27AA27621739
:102BC0007307840738F09F5F5F4F220F331F441F46
:102BD000AA1FA9F335D00E2E3AF0E0E832D091507A
:102BE0005040E695001CCAF72BD0FE2F29D0660F67
:102BF000771F881FBB1F261737074807AB07B0E8AA
:102C000009F0BB0B802DBF01FF2793585F4F3AF0AF
:102C10009E3F510578F00C94C9160C9414175F3F31
:102C2000E4F3983ED4F3869577956795B795F79535
:102C30009F5FC9F7880F911D9695879597F908951D
:102C4000E1E0660F771F881FBB1F621773078407B9
:102C5000BA0720F0621B730B840BBA0BEE1F88F7C8
:102C6000E09508950E9439166894B1110C941417D8
:102C700008950E94F91688F09F5798F0B92F992768
:102C8000B751B0F0E1F0660F771F881F991F1AF057
:102C9000BA95C9F714C0B13091F00E941317B1E092
:102CA00008950C941317672F782F8827B85F39F091
:102CB000B93FCCF3869577956795B395D9F73EF4F0
:102CC00090958095709561957F4F8F4F9F4F089598
:102CD000E89409C097FB3EF49095809570956195B6
:102CE0007F4F8F4F9F4F9923A9F0F92F96E9BB276C
:102CF0009395F695879577956795B795F111F8CFE8
:102D0000FAF4BB0F11F460FF1BC06F5F7F4F8F4F52
:102D10009F4F16C0882311F096E911C0772321F048
:102D20009EE8872F762F05C0662371F096E8862FE0
:102D300070E060E02AF09A95660F771F881FDAF737
:102D4000880F9695879597F90895990F0008550F64
:102D5000AA0BE0E8FEEF16161706E807F907C0F021
:102D600012161306E407F50798F0621B730B840B29
:102D7000950B39F40A2661F0232B242B252B21F403
:102D800008950A2609F4A140A6958FEF811D811DA3
:102D9000089597F99F6780E870E060E008959FEFDD
:102DA00080EC089500240A941616170618060906E2
:102DB000089500240A9412161306140605060895B1
:102DC000092E0394000C11F4882352F0BB0F40F439
:102DD000BF2B11F460FF04C06F5F7F4F8F4F9F4F79
:102DE000089557FD9058440F551F59F05F3F71F0FB
:102DF0004795880F97FB991F61F09F3F79F0879562
:102E00000895121613061406551FF2CF4695F1DFEA
:102E100008C0161617061806991FF1CF869571057A
:102E2000610508940895E894BB2766277727CB01AE
:102E300097F908950E94A51608F48FEF08950E944F
:102E400032170C94E0160E94D21638F00E94D91660
:102E500020F0952311F00C94C9160C94CF16112470
:102E60000C9414170E94F11670F3959FC1F3950FFF
:102E700050E0551F629FF001729FBB27F00DB11DFE
:102E8000639FAA27F00DB11DAA1F649F6627B00D8E
:102E9000A11D661F829F2227B00DA11D621F739F77
:102EA000B00DA11D621F839FA00D611D221F749F85
:102EB0003327A00D611D231F849F600D211D822FCC
:102EC000762F6A2F11249F5750409AF0F1F08823F3
:102ED0004AF0EE0FFF1FBB1F661F771F881F915020
:102EE0005040A9F79E3F510580F00C94C9160C94F0
:102EF00014175F3FE4F3983ED4F386957795679572
:102F0000B795F795E7959F5FC1F7FE2B880F911D49
:102F10009695879597F90895FA01EE0FFF1F309661
:102F200021053105A1F16115710561F48038BFE318
:102F30009B0749F168949038810561F08038BFEFB4
:102F40009B0741F099234AF5FF3FE1053105210533
:102F500019F1E8940894E795D901AA2329F4AB2F35
:102F6000BE2FF85FD0F310C0FF5F70F4A695E0F7B6
:102F7000F73950F019F0FF3A38F49F779F930DD04E
:102F80000F9007FC9058089546F00C94CF1660E01F
:102F900070E080E89FE308954FE79F775F934F933A
:102FA0003F932F930E9487182F913F914F915F91EC
:102FB0000E941F170C94E41729F416F00C94C916FC
:102FC0000C9413170C94CF160E94F916A8F3963898
:102FD000A0F707F80F92E8942BE33AEA48EB5FE793
:102FE0000E9435170F920F920F924DB75EB70F9256
:102FF0000E94CF18E8E6F0E00E9416184F915F910A
:10300000EF91FF91E595EE1FFF1F49F0FE57E06835
:103010004427EE0F441FFA95E1F74195550B0E94A6
:1030200049180F9007FE0C943D180895DF93CF9335
:103030001F930F93FF92EF92DF927B018C016894B4
:1030400006C0DA2EEF010E943217FE01E894A59126
:103050002591359145915591A6F3EF010E94661592
:10306000FE019701A801DA9469F7DF90EF90FF90D5
:103070000F911F91CF91DF9108959B01AC0160E00A
:1030800070E080E89FE30C94C0150C94C9160C9472
:1030900003190E94F916D8F39923C9F3940F511D0F
:1030A000A3F39150504094F059F0882332F0660F0A
:1030B000771F881F91505040C1F79E3F51052CF754
:1030C000880F911D9695879597F908955F3FACF00D
:1030D000983E9CF0BB27869577956795B79508F441
:1030E000B1609395C1F7BB0F58F711F460FFE8CFBB
:1030F0006F5F7F4F8F4F9F4FE3CF0C94141716F0E5
:103100000C9403190C94CF1668940C94C9160E9461
:10311000F916A8F39923C1F3AEF3DF93CF931F936E
:103120000F93FF92C92FDD2788232AF02197660F7E
:10313000771F881FDAF720E030E040E85FEB9FE37D
:10314000883920F0803E38F021968F770E944F1505
:10315000E0E9F0E004C00E944F15EDEBF0E00E94C2
:1031600016188B01BE01EC01FB2E6F577109759586
:10317000771F880B990B0E946A1628E132E741E31A
:103180005FE30E943217AF2D9801AE01FF900F91BF
:103190001F91CF91DF910E9466150C94E016FA0101
:1031A000DC01AA0FBB1F9B01AC01BF5728F42227EB
:1031B00033274427507820C0B75190F4AB2F002418
:1031C000469537952795011CA395D2F3002071F001
:1031D000220F331F441FB395DAF30ED00C944E1513
:1031E00061307105A0E88A07B94630F49B01AC0153
:1031F0006627772788279078309621F020833183BF
:103200004283538308959F3F31F0915020F4879576
:1032100077956795B795880F911D9695879597F93E
:10322000089581E090E0F8940C946819FB01DC01AA
:103230000D900020E9F7119701900D920020E1F721
:103240000895FB01DC010D900020E9F7119705902E
:103250000D920020E1F70895FB01DC0105900D922D
:103260000020E1F70895BB274A3031F4992322F476
:10327000BDE2909581959F4F0C943F19BB27FB01B0
:103280005527AA27880F991FAA1FA41710F0A41B5F
:1032900083955051B9F7A05DAA3308F0A95DA193B9
:1032A000009779F7B111B1931192CB010C94581991
:1032B000DC01FC01672F71917723E1F7329704C09D
:1032C0007C916D9370836291AE17BF07C8F3089528
:1032D00012E0C2E6D2E004C0FE010E944815219629
:0A32E000C336D107C9F7F894FFCFF9
:1032EA0001F000065E00BC007701000000003A0908
:1032FA00B6080309E108F508810900000000E102A7
:10330A00CD02C602C302C002BF02000000004A0783
:0A331A00B60828033F03FF02190361
:00000001FF
