:100000000C9462020C948A020C948A020C94F207FB
:100010000C94CE070C94AA070C948A020C948A02C2
:100020000C948A020C948A020C948A020C948A0220
:100030000C948A020C948A020C948A020C948A0210
:100040000C9455040C948A020C94310A0C940B0AFB
:100050000C948A020C948A020C948A020C948A02F0
:100060000C949F040C948A0207634236B79BD8A76E
:100070001A39685618AEBAAB558C1D3CB7CC5763CD
:10008000BD6DEDFD753EF6177231BF000000803F7B
:1000900008000000BE922449123EABAAAA2ABECD97
:1000A000CCCC4C3E00000080BEABAAAAAA3E000009
:1000B0000000BF000000803F000000000008417801
:1000C000D3BB4387D1133D190E3CC3BD4282AD2B38
:1000D0003E68EC8276BED98FE1A93E4C80EFFFBE30
:1000E00001C4FF7F3F0000000000005EBCE2613FF2
:1000F000DD83C29C7E20A3FD1F419DC3217FFCA206
:10010000401E5F01E3BD3E6082DC237D9FC1421C37
:10011000FEA0E1BF5D0380DE3C62BEE0025CDF81E9
:10012000633D7C22C09E1D43A1FF4618FAA4277997
:100130009BC584DA3866E5BB5907DB856739BAE4C5
:1001400006581947A5FB7826C49A653BD987045AF7
:10015000B8E6A7F91B45C6987A24F8A6441A99C7A9
:10016000257B3A6486D85B05E7B98CD2306EEDB357
:10017000510F4E10F2AC2F7193CD114FADF3702E85
:10018000CC92D38D6F31B2EC0E50AFF1134DCE90B7
:10019000722C6D33D18F0C52B0EE326C8ED0530D69
:1001A000EFB1F0AE4C1291CF2D73CA947628ABF517
:1001B00017490856B4EA6937D58B5709EBB5366845
:1001C0008AD495CB2977F4AA4816E9B7550B88D677
:1001D000346A2B7597C94A14F6A8742AC896154B29
:1001E000A9F7B6E80A54D7896B350000000024004F
:1001F00027002A0000000008000201000003040795
:10020000000000000000000000C201000100050025
:1002100005000300030000E1000001000F000F00D3
:100220000D000D0000960000020019001A001700D2
:100230001700127A00000700200021001D001D0099
:10024000807000000B002300230020002000004BE2
:10025000000014003700370034003400403800003C
:100260001E004B004B0048004800482600003100AB
:10027000710071006F006F00E42500003100710013
:1002800071006F006F008025000032007200720064
:1002900070007000C01200006E00E900E900E60086
:1002A000E60060090000E500D801D801D501D501BC
:1002B000B0040000D301B403B403B103B103580286
:1002C0000000B40367076707620762072C0100009C
:1002D0006707DD0EDD0EDA0EDA0E2000B0430054A3
:1002E000656D70203400B0430054656D702033009C
:1002F000B0430054656D70203200B0430054656D0A
:1003000070203100342D54656D700020524354200C
:10031000466F757254656D700020524354204A65D3
:10032000746920546F6F6C7300B0430054343A000A
:10033000B043200054333A00B0430054323A00B086
:1003400043200054313A002052435420466F7572C6
:1003500054656D700020524354204A6574692054DE
:100360006F6F6C73002052435420466F7572546552
:100370006D700020524354204A65746920546F6F99
:100380006C730000070E091C1B1215383F36312410
:10039000232A2D70777E796C6B6265484F464154F5
:1003A000535A5DE0E7EEE9FCFBF2F5D8DFD6D1C4A5
:1003B000C3CACD90979E998C8B8285A8AFA6A1B415
:1003C000B3BABDC7C0C9CEDBDCD5D2FFF8F1F6E3C6
:1003D000E4EDEAB7B0B9BEABACA5A28F8881869335
:1003E000949D9A2720292E3B3C35321F1811160365
:1003F000040D0A5750595E4B4C45426F6861667355
:10040000747D7A898E878095929B9CB1B6BFB8AD7A
:10041000AAA3A4F9FEF7F0E5E2EBECC1C6CFC8DD74
:10042000DAD3D4696E676075727B7C51565F584D24
:100430004A4344191E171005020B0C21262F283D94
:100440003A33344E49404752555C5B7671787F6A47
:100450006D64633E39303722252C2B0601080F1AB4
:100460001D1413AEA9A0A7B2B5BCBB9691989F8AE4
:100470008D8483DED9D0D7C2C5CCCBE6E1E8EFFAD4
:10048000FDF4F300000000250028002B0000000010
:1004900000230026002900040404040404040402C8
:1004A0000202020202030303030303010204081011
:1004B00020408001020408102001020408102000DE
:1004C0004213750E11241FBECFEFD8E0DEBFCDBFA3
:1004D00011E0A0E0B1E0ECE2F1E302C005900D9282
:1004E000AA33B107D9F724E0AAE3B1E001C01D9215
:1004F000A135B207E1F712E0C1E6D2E004C02197CE
:10050000FE010E946914C036D107C9F70E94A80EE7
:100510000C9489180C9400003FB7F8948091CE0198
:100520009091CF01A091D001B091D10126B5A89BA7
:1005300005C02F3F19F00196A11DB11D3FBFBA2F75
:10054000A92F982F8827820F911DA11DB11DBC01D5
:10055000CD0143E0660F771F881F991F4A95D1F799
:10056000089585ED8093BC008091BC0084FDFCCF94
:100570001092A301089540917D01262F30E0240FB1
:10058000311D21323105DCF42091A3012430C9F45E
:10059000FC0180E090E0861758F430917D012191B4
:1005A000DC01A55ABE4FA30FB11D2C930196F3CFCA
:1005B00080917D01680F60937D0180E0089581E066
:1005C000089582E0089508958FEF9FEF08958FEFCB
:1005D0009FEF089580915A0190E09195819591093E
:1005E0000895CF93DF9300D0CDB7DEB7CB01642F52
:1005F00049835A830E94BB024981842F5A81952FD7
:100600000F900F90DF91CF910895CF93DF931F92BA
:10061000CDB7DEB7698361E0CE0101960E94BB02CF
:1006200081E090E00F90DF91CF9108950895DC0173
:100630005196ED91FC915297908150968C918095B6
:1006400089238083089520913B0230913C02281732
:10065000390781F49091390280913A02981751F04C
:10066000E0913902F0E0E65CFE4F8081082E000C3C
:10067000990B08958FEF9FEF089520913B023091E1
:100680003C022817390739F48FB7F89410923A02D0
:10069000109239028FBF089520913B0230913C02A5
:1006A0002817390769F480913A022091390290E0C5
:1006B0008096821B910960E270E00E9441140895C7
:1006C0008FEF9FEF089520913B0230913C02281755
:1006D0003907B9F49091390280913A029817A1F044
:1006E000E0913902F0E0E65CFE4F80812091390212
:1006F00030E02F5F3F4F2F7133272093390290E076
:1007000008958FEF9FEF08958EEF9FEF089590E08B
:10071000FC01EC50FE4F3491FC01E555FB4F249158
:10072000FC01E956FB4FE491EE2309F43BC033236F
:1007300039F1333091F038F43130A9F0323001F52D
:1007400084B58F7D12C0373091F03830A1F034304D
:10075000B9F4809180008F7D03C0809180008F77F5
:10076000809380000DC084B58F7784BD09C08091CF
:10077000B0008F7703C08091B0008F7D8093B00070
:10078000F0E0EE0FFF1FED57FB4FA591B4918FB72F
:10079000F894EC91611103C020952E2301C02E2BFB
:1007A0002C938FBF0895CF93DF9390E0FC01E55524
:1007B000FB4F2491FC01E956FB4F8491882361F1A2
:1007C00090E0880F991FFC01E651FE4FC591D4912E
:1007D000FC01ED57FB4FA591B491611109C09FB782
:1007E000F8948881209582238883EC912E230BC076
:1007F000623061F49FB7F8943881822F809583230B
:100800008883EC912E2B2C939FBF06C08FB7F89452
:10081000E8812E2B28838FBFDF91CF9108958F928F
:100820009F92AF92BF92CF92DF92EF92FF926B01B5
:100830007C010E948C024B015C01C114D104E104D3
:10084000F104F1F00E948C02DC01CB0188199909B6
:10085000AA09BB09883E9340A105B10570F321E0C8
:10086000C21AD108E108F10888EE880E83E0981ECC
:10087000A11CB11CC114D104E104F10419F7DDCFAE
:10088000FF90EF90DF90CF90BF90AF909F908F90B0
:1008900008952FB7F8946091CA017091CB018091AF
:1008A000CC019091CD012FBF08951F920F920FB6EA
:1008B0000F9211242F933F938F939F93AF93BF93E6
:1008C0008091CA019091CB01A091CC01B091CD0152
:1008D0003091C90126E0230F2D3720F40296A11D87
:1008E000B11D05C029E8230F0396A11DB11D20935A
:1008F000C9018093CA019093CB01A093CC01B0931E
:10090000CD018091CE019091CF01A091D001B09105
:10091000D1010196A11DB11D8093CE019093CF010D
:10092000A093D001B093D101BF91AF919F918F91CE
:100930003F912F910F900FBE0F901F9018951F920F
:100940000F920FB60F9211242F933F934F935F9303
:100950006F937F938F939F93AF93BF93EF93FF9387
:100960008091B900887F803609F49CC068F5883290
:1009700009F45BC090F4803109F454C038F4882342
:1009800009F4F6C0883009F44DC0F6C0883109F486
:100990004CC0803209F45DC0EFC0803409F468C0F7
:1009A00048F4803309F455C0883309F0E5C08093DA
:1009B000A201D8C0803509F44FC0883509F45DC064
:1009C000883409F0D9C0D6C0883909F4C7C0A8F462
:1009D000883709F467C038F4883609F463C0803773
:1009E00009F460C0C9C0883809F4B8C0803909F476
:1009F0005FC0803809F0C0C05BC0803B09F486C08E
:100A000038F4803A09F466C0883A09F47FC0B4C06B
:100A1000803C09F4A7C0883C09F4A4C0883B09F4D1
:100A20008AC0AAC08091C80110C09091C70180916E
:100A3000C601981770F5E091C70181E08E0F809391
:100A4000C701F0E0EA55FE4F80818093BB0085EC42
:100A500086C08093A2018EC0E091C70181E08E0F15
:100A60008093C7018091BB00F0E0EA55FE4F808380
:100A70009091C7018091C6016EC0E091C70181E0ED
:100A80008E0F8093C7018091BB00F0E0EA55FE4FC6
:100A900080838091A50181116DC081E08093A401C4
:100AA00084EA61C083E08093A3011092A101CFCFBB
:100AB0008091A101803208F051C0E091A10181E054
:100AC0008E0F8093A1018091BB00F0E0EF57FE4FA5
:100AD0008083BDCF85EC8093BC001092A3018091F0
:100AE000A101803230F4E091A101F0E0EF57FE4F18
:100AF00010826091A10170E0E0917F01F09180018E
:100B000081E891E009951092A10136C084E08093BC
:100B1000A30110927E0110927D01E0917B01F09182
:100B20007C01099580917D01811105C081E0809350
:100B30007D0110925B01E0917E0181E08E0F809338
:100B40007E01F0E0E55AFE4F80818093BB009091DA
:100B50007E0180917D01981708F479CF85E8809314
:100B6000BC000AC085EC8093BC001092A30104C0B5
:100B70001092A2010E94B102FF91EF91BF91AF913B
:100B80009F918F917F916F915F914F913F912F91A5
:100B90000F900FBE0F901F901895DC01E0E06150A0
:100BA00038F08D91E827F0E0E651FF4FE491F7CF60
:100BB0008E2F0895FC0190810180F281E02DF89440
:100BC0008181892B81832281892F8095282322830B
:100BD000A2E0B0E01197F1F7218182238183A0E1A7
:100BE000B0E01197F1F780817894E6E6F0E0319774
:100BF000F1F7982381E009F480E00895FC019081E9
:100C00000180F281E02D892F809560FF12C0F89459
:100C10002281822382838181892B8183A0E1B0E0BC
:100C20001197F1F78281982B928378948AE690E06D
:100C300011C0F8942281822382838181892B818350
:100C4000AEE7B0E01197F1F78281982B9283789408
:100C500086E090E00197F1F70895CF92DF92EF924E
:100C6000FF920F931F93CF93DF931F92CDB7DEB701
:100C70006C01E62E08E010E0FF24F39461E08F2D74
:100C80008E2109F460E0C60149830E94FE05FF0C35
:100C90000150110949810115110581F7411115C054
:100CA000F894D6011196ED91FC91129791818C9157
:100CB0008095892381831196ED91FC911297928101
:100CC0008C9180958923828378940F90DF91CF91C6
:100CD0001F910F91FF90EF90DF90CF900895CF92EA
:100CE000DF92EF92FF920F931F93CF93DF931F92A8
:100CF000CDB7DEB78C01F62E40E065E579830E9422
:100D00002D06CF2C7981D72E760188E0E80EF11CD4
:100D1000F60161916F0140E0C8010E942D06CE14DA
:100D2000DF04B1F70F90DF91CF911F910F91FF90EA
:100D3000EF90DF90CF900895FC0190810180F281C7
:100D4000E02DF8948181292F209582238183789446
:100D50008DE7815009F130813923D9F3F8948281EC
:100D6000822382838181892B81837894ACEBB3E0E9
:100D70001197F1F7F894818128232183A8E8B0E046
:100D80001197F1F78081982381E009F080E0789451
:100D9000E0E3F3E03197F1F7089520E001972FEFBA
:100DA0008F3F9207D9F70895CF92DF92EF92FF928B
:100DB0000F931F93CF93DF93EC01898D9A8D00974A
:100DC00029F421E030E03B832A8364C0FFB6F89425
:100DD00028E030E090E081E0482F462309F09F5F53
:100DE000880F21503109C1F78E8D81119F5FE62E4A
:100DF000192F1095CE010E941703898D9A8D0496A4
:100E00000E94CD0688E0C82ED12C01E0802F8E21D3
:100E100039F0E989FA8990818889892B808303C018
:100E2000CE010E941703898D9A8D0E94CD06000F76
:100E300081E0C81AD10851F78E8D882339F0E989ED
:100E4000FA8990818889892B808303C0CE010E9412
:100E50001703898D9A8D0E94CD0610FF07C0E9897E
:100E6000FA8990818889892B808303C0CE010E94F2
:100E70001703898D9A8D0E94CD06E989FA899081A0
:100E80008889892B8083FFBE8B8D9C8D0E94CD0627
:100E900081E090E0DF91CF911F910F91FF90EF9053
:100EA000DF90CF900895EF92FF920F931F93CF930F
:100EB000DF93C0913B02D0913C02209709F443C0DC
:100EC0008B899C890E94CD0688E0E82EF12C10E0E9
:100ED00001E08D899E890E94CD06EE85FF85908177
:100EE0008D85892311F0102B03C0802F8095182346
:100EF000000F81E0E81AF10861F78D899E890E9450
:100F0000CD068F89988D0E94CD0680913A0220915E
:100F1000390290E001968F71992730E0821793078C
:100F200079F0E0913A02F0E0E65CFE4F10838091A8
:100F30003A0290E001968F71992780933A0203C09C
:100F40008D8D81608D8FDF91CF911F910F91FF90DB
:100F5000EF9008951F920F920FB60F9211242F93C6
:100F60003F934F935F936F937F938F939F93AF9331
:100F7000BF93EF93FF930E945307FF91EF91BF91AF
:100F8000AF919F918F917F916F915F914F913F9121
:100F90002F910F900FBE0F901F9018951F920F92D8
:100FA0000FB60F9211242F933F934F935F936F933C
:100FB0007F938F939F93AF93BF93EF93FF930E9481
:100FC0005307FF91EF91BF91AF919F918F917F91C7
:100FD0006F915F914F913F912F910F900FBE0F90A6
:100FE0001F9018951F920F920FB60F9211242F93F6
:100FF0003F934F935F936F937F938F939F93AF93A1
:10100000BF93EF93FF930E945307FF91EF91BF911E
:10101000AF919F918F917F916F915F914F913F9190
:101020002F910F900FBE0F901F901895CF93DF93C5
:10103000C0E0D0E08091040490E0C817D907ECF438
:10104000209761F00197C817D90741F081E02091FE
:10105000020430910304C217D30709F480E0FE01B3
:10106000E25BFC4F60818093230485E094E00E9462
:10107000D406109223042196DDCFDF91CF910895FD
:10108000CF92DF92EF92FF920F931F93CF93DF9354
:101090006C017A018B01C0E0D0E0CE15DF0589F04C
:1010A000D8016D918D01D601ED91FC910190F081F7
:1010B000E02DC6010995892B11F47E0102C021960D
:1010C000ECCFC701DF91CF911F910F91FF90EF906F
:1010D000DF90CF900895FC01918D828D981761F07B
:1010E000828DDF01A80FB11D5D968C91928D9F5F5F
:1010F0009F73928F90E008958FEF9FEF0895FC010A
:10110000918D828D981731F0828DE80FF11D858DBC
:1011100090E008958FEF9FEF0895FC01918D228D4F
:10112000892F90E0805C9F4F821B91098F739927D4
:1011300008958DE392E00E948D0821E0892B09F447
:1011400020E0822F0895FC01848DDF01A80FB11DDE
:10115000A35ABF4F2C91848D90E001968F739927ED
:10116000848FA689B7892C93A089B1898C918064DA
:101170008C93938D848D981306C00288F389E02D9B
:1011800080818F7D80830895EF92FF920F931F934C
:10119000CF93DF93EC0181E0888F9B8D8C8D98132A
:1011A00005C0E889F989808185FD24C0F62E0B8D64
:1011B00010E00F5F1F4F0F731127E02E8C8DE81288
:1011C0000CC00FB607FCFACFE889F989808185FF4A
:1011D000F5CFCE010E94A308F1CF8B8DFE01E80F61
:1011E000F11DE35AFF4FF0820B8FEA89FB89808162
:1011F000806207C0EE89FF896083E889F989808170
:101200008064808381E090E0DF91CF911F910F9106
:10121000FF90EF900895CF93DF93EC01888D8823A2
:10122000C9F0EA89FB89808185FD05C0A889B98953
:101230008C9186FD0FC00FB607FCF5CF808185FF2E
:10124000F2CFA889B9898C9185FFEDCFCE010E949C
:10125000A308E7CFDF91CF91089580E090E0892B3C
:1012600029F00E94990881110C9400000895CF93F1
:10127000DF93CDB7DEB729970FB6F894DEBF0FBE68
:10128000CDBFFC012081203119F1BE016F5F7F4F7E
:101290000E94200E882379F068E0CE0101960E941A
:1012A000CD059985891307C008C0803458F08F3563
:1012B00069F08F3769F080E00CC08D818F33A9F71A
:1012C0008AE007C08F31B9F789E003C08BE001C025
:1012D0008CE029960FB6F894DEBF0FBECDBFDF912C
:1012E000CF9108950F931F93CF93DF93CDB7DEB7C0
:1012F00061970FB6F894DEBF0FBECDBF082FE09107
:101300002904F0912A04138615861486DF011B96A2
:1013100033961E92AE17BF07E1F710E0BE01665F7D
:101320007F4F8091290490912A040E94900D882378
:1013300069F0101308C067E0CE010A960E94CD053F
:101340009989891741F01F5F011740F760E070E04D
:101350008EEF92EC53C0BE016F5F7F4FCE010A96B5
:101360000E94200E882309F446C068E0CE01019651
:101370000E94CD05998589133EC0698188E0689FE8
:10138000B00111248A81282F30E0322F2227330F19
:10139000330F330F262B372B8A85803151F5688523
:1013A00070E08F81AB01481B5109CA019695982FB7
:1013B0008827979587950E94411460517109207F75
:1013C00053E0220F331F5A95E1F7620F731F613804
:1013D00054EE75070CF4BACF072E000C880B990B4E
:1013E0000E948B1520E030E040E05CE30E94401654
:1013F00005C0B901ECCF60E874EEE9CF61960FB695
:10140000F894DEBF0FBECDBFDF91CF911F910F913A
:1014100008950E9432181F920F920FB60F92112456
:101420002F933F934F935F936F937F938F939F93EC
:10143000AF93BF93EF93FF938DE392E00E94A308D5
:10144000FF91EF91BF91AF919F918F917F916F919C
:101450005F914F913F912F910F900FBE0F901F9072
:1014600018951F920F920FB60F9211242F938F93FE
:101470009F93EF93FF93E0914D02F0914E02808194
:10148000E0915302F091540282FD12C0908180914C
:1014900056028F5F8F7320915702821751F0E091AF
:1014A0005602F0E0E35CFD4F958F8093560201C039
:1014B0008081FF91EF919F918F912F910F900FBE9F
:1014C0000F901F90189580913B0290913C0285509F
:1014D0009440A1F0809122048E7F809322048FB7E4
:1014E000F89410923A021092390225E034E03093D9
:1014F0003C0220933B028FBF81E0089580E0089575
:101500002F923F924F925F926F927F928F929F9213
:10151000AF92BF92CF92DF92EF92FF920F931F9301
:10152000CF93DF9300D000D0CDB7DEB72B013C01C5
:1015300020E030E0A9010E94DC1487FF05C020E014
:1015400030E040E05FEB04C020E030E040E05FE3EB
:10155000C301B2010E9470146B017C0120E030E0F5
:10156000A901C301B2010E94DC1487FF04C0F7FA8D
:10157000F094F7F8F094A12CB12C8DEC282E9CEC73
:10158000392E8CEC8B839DE39C8320E030E040E29D
:1015900051E4B1018B819C810E9440164B018C016A
:1015A000A70196010E94DC1418163CF0AFEFAA1AAE
:1015B000BA0A14010B831C83E8CF20E030E0A901B4
:1015C000C301B2010E94DC1487FF06C08DE2809344
:1015D000290201E010E002C000E010E0A114B10413
:1015E00039F4F801E75DFD4F80E380830F5F1F4F03
:1015F000812C912CF401E00FF11FFA83E9838A1406
:101600009B04B1F191014B815C81C701B6010E943D
:10161000E1140E9453152B013C0169817A81675DB9
:101620007D4F4AE0C2010E945418B201550C880B4C
:10163000990B0E948B1591014B815C810E94401691
:101640009B01AC01C701B6010E946F146B017C01C4
:1016500020E030E040E251E4B1018B819C810E94A6
:10166000E1141B018B839C83BFEF8B1A9B0AC2CFB3
:10167000E75DFD4F108289E292E00F900F900F908E
:101680000F90DF91CF911F910F91FF90EF90DF901E
:10169000CF90BF90AF909F908F907F906F905F9012
:1016A0004F903F902F900895A9E0B2E020E040E2F3
:1016B00050E15A0F21111FC0FC0134913323D9F09E
:1016C0003C93119601965A13F5CF80E090E020E00C
:1016D00030E2DC01A75FBD4F211110C0FB01E80F14
:1016E000F91FE491EE2351F05096EC93019680316E
:1016F000910579F708954C9321E0E3CF50963C9300
:1017000021E0F4CF2F923F924F925F926F927F929F
:101710008F929F92AF92BF92CF92DF92EF92FF9201
:101720000F931F93CF93DF93CDB7DEB7A0970FB67C
:10173000F894DEBF0FBECDBF90914C039923C9F042
:101740002EE720934E0322E920934F0323E22093B8
:1017500050039093510390910301992311F09150FC
:1017600003C010924C0396E09093030104E010E054
:1017700002C000E010E090914C03911197C19EE7E8
:1017800090934E039FE990934F031092500398E17A
:101790009093510394EA909352039CEA90935303DD
:1017A00097E090935403109255038111E8C080E4B0
:1017B0008093500370904D038090DA029090DB028A
:1017C00008E010E0612CD62CD70CED2DF0E0E815E8
:1017D000F9050CF0C7C0DF01AA0FBB1FA45DBC4F09
:1017E000AD90BC90A114B10409F4B8C0D29430EF0C
:1017F000D322C80186529D4F7C01DC01AC58BF4FFB
:10180000DC92E45EFC4FC080CC2021F093E09C157C
:1018100090F104C0D5016D917C9130C06C2D70E0C9
:1018200080E090E00E9489159B01AC0160E070E0CF
:1018300080E291E40E94AD16F50120813181428160
:1018400053810E9440161B012C0120E030E0A901C9
:101850000E943B1620E030E040E05FE387FD05C0DA
:10186000C201B1010E94701404C0C201B1010E9402
:101870006F140E945315F3E0FC15B0F0F701EC581B
:10188000FF4F8D2D816080837F79D12C20E2C29E15
:10189000D02CCC2411246C297D293196608331967B
:1018A00070830D5F1F4F5AC084E0C81211C0F7014A
:1018B000EC58FF4F8D2D846080833196D5018C913B
:1018C0008083319611968C9180833196108219C055
:1018D000B5E0CB1219C0F701EC58FF4F8D2D856094
:1018E0008083F5018281F701EB58FF4F8083D5019A
:1018F00011968C9111973196808331968C918F71CE
:1019000080830C5F1F4F2AC0B9E0CB1227C0F701BC
:10191000EC58FF4F8D2D89608083F5018381F7019D
:10192000EB58FF4F8083D50112968C911297319618
:10193000808311968C911197319680838C91F80158
:10194000EE5AFC4F80838C91853421F08E3421F443
:10195000108202C0B0E2B0830B5F1F4F6394E6E0D9
:101960006E1231CF86E0870D282F30E0281539051B
:101970001CF480934D037BC010924D0378C0E0911E
:101980000802F0E0EE0FFF1FE452FD4F608171810D
:101990007E01F1E1EF0EF11CC7010E944D18E091AC
:1019A0000802F0E0EE0FFF1FE450FD4F60817181EF
:1019B0008E010F5F1F4FC8010E944D1880910802D1
:1019C00080935603F70101900020E9F73197EE1953
:1019D000FF09EE0FEE0FEE0FD8010D900020E9F792
:1019E0001197A01BB10BA370EA2BE0935703D7010B
:1019F0002AE030E0F70101900020E9F73197AF01CC
:101A00004E195F09F901EC58FF4FBD016E197F09AE
:101A10006417750738F49D91E652FD4F90832F5F50
:101A20003F4FE8CFE652FD4FA801201B310BB90113
:101A3000640F751FD8010D900020E9F71197A01BC6
:101A4000B10B7A01E01AF10AEA16FB0628F4DA0172
:101A50009D91AD019193EBCF8B018F5F90E06091F1
:101A6000DA027091DB020E94411480930802809197
:101A700050039EEF900F892B8093500322E0E0E00B
:101A8000822F90E0801791075CF4DC01A25BBC4FD1
:101A90008C91E827F0E0ED57FC4FE4912F5FF0CFF9
:101AA000D801A25BBC4FEC930F5F1F4FC801865259
:101AB0009D4FFC01EC58FF4F2EEF20831093030441
:101AC00000930204D801A15BBC4FE9E0F2E020E200
:101AD0002E0F31913D932E13FCCFFC01EB56FF4F9F
:101AE0008FEF80830E5D1F4F0093040481E0A0966A
:101AF0000FB6F894DEBF0FBECDBFDF91CF911F911F
:101B00000F91FF90EF90DF90CF90BF90AF909F909C
:101B10008F907F906F905F904F903F902F9008959F
:101B2000AF92BF92CF92DF92EF92FF920F931F93EB
:101B3000CF93DF931F92CDB7DEB75C01D62EE72E91
:101B4000FC018585811105C0C5010E949C0681119B
:101B500006C0F50113861586148680E065C040E056
:101B600060EFC5010E942D0601E0F12CC12C11E0AF
:101B7000C5010E94DA05682FC50169830E94DA0554
:101B80006981613019F48130B9F433C04F2D50E0D0
:101B900068131BC0F5018385181730F4E40FF51F97
:101BA0008381802349F402C0181731F060E01930B6
:101BB00058F4F501148708C0F501EF0DF11D83817C
:101BC000802B838361E009C0C12EF501E40FF51F6E
:101BD0009381802F809589238383C5010E94FE0510
:101BE0001F5F000F11F4F39401E0F7E0FF1508F018
:101BF000BFCF113408F4ADCFF501C386C11002C0C8
:101C000081E08587F5018381882309F4A2CFD5017E
:101C10001396ED2DFE2D9501255F3F4F8D918193FC
:101C2000A217B307D9F781E00F90DF91CF911F91F1
:101C30000F91FF90EF90DF90CF90BF90AF900895FD
:101C4000AF92BF92CF92DF92EF92FF920F931F93CA
:101C5000CF93DF93EC018B018091290490912A04AA
:101C60000E949C068823A1F1BE01809129049091D5
:101C70002A040E946F0640E06EEB80912904909147
:101C80002A040E942D06E801680189E0C80ED11CD3
:101C9000A0902904B0902A0488E0E82EF12C01E0FD
:101CA00010E0C5010E94DA058111102B000F81E0C0
:101CB000E81AF108B1F71993CC15DD0549F78091C1
:101CC000290490912A040E949C0691E0813009F039
:101CD00090E0892FDF91CF911F910F91FF90EF90AE
:101CE000DF90CF90BF90AF9008958EE291E09093F7
:101CF00006048093050420911104263140F5283014
:101D000028F02E3030F0ECE6F0E005C0EDE6F0E033
:101D100002C0EBE6F0E03081283038F481E090E05A
:101D200001C0880F2A95EAF70FC0422F50E02E30ED
:101D300018F44850510902C04E50510981E090E01A
:101D400001C0880F4A95EAF7809583238083089520
:101D5000CF93DF93CDB7DEB761970FB6F894DEBFB0
:101D60000FBECDBF789484B5826084BD84B5816098
:101D700084BD85B5826085BD85B5816085BD809156
:101D80006E00816080936E001092810080918100CE
:101D900082608093810080918100816080938100C6
:101DA000809180008160809380008091B100846088
:101DB0008093B1008091B00081608093B0008091E9
:101DC0007A00846080937A0080917A0082608093A8
:101DD0007A0080917A008E7F80937A0080917A00D9
:101DE000806880937A001092C100E0914D02F091DA
:101DF0004E0282E08083E0914902F0914A02108213
:101E0000E0914B02F0914C0287E6808310925502DC
:101E1000E0915102F091520286E08083E0914F02FE
:101E2000F0915002808180618083E0914F02F091B7
:101E30005002808188608083E0914F02F0915002CF
:101E4000808180688083E0914F02F0915002808110
:101E50008F7D80831092000161E08DE00E94D303AA
:101E600061E08DE00E948703E0912904F0912A044B
:101E7000138615861486DF011B9633961E92AE17C5
:101E8000BF07E1F71092280411E0BE01665F7F4FA3
:101E90008091290490912A040E94900D882309F4CE
:101EA00051C067E0CE010A960E94CD059989891339
:101EB000ECCF80912404811127C080912904909156
:101EC0002A040E949C06BE01665F7F4F8091290410
:101ED00090912A040E946F0640E064EB80912904EF
:101EE00090912A040E942D068091290490912A0441
:101EF0000E94DA05082F8091290490912A040E94FB
:101F00009C06002309F4BBC3BE016F5F7F4FCE0167
:101F10000A960E94200E00912504CE010A960E9486
:101F20003709801718F48091250404C0CE010A9661
:101F30000E94370980932504809128048F5F809345
:101F40002804A3CF61E083E00E94D3031092210410
:101F50001092200410921F0410921E0410921D046F
:101F600010921C0410921B0410921A04109219046F
:101F70001092180488E092E020E030E0FC014591E6
:101F8000559165917491443E55426105710509F082
:101F900034C04EE0429FC001439F900D1124FC01CC
:101FA000E45FFD4F25913491309319042093180478
:101FB000FC01E25FFD4F2591349130931B04209387
:101FC0001A04FC01E05FFD4F2591349130931D040C
:101FD00020931C04FC01EE5EFD4F2591349130935B
:101FE0001F0420931E04FC01EC5EFD4F859194912B
:101FF000909321048093200407C02F5F3F4F0E96DB
:102000002F30310509F0BACF80911C0490911D0446
:10201000892B09F446C0909111049631E0F5209186
:102020006800983050F031E09E3008F430E081E0F4
:1020300001C0880F3A95EAF701C084E0822B8093B3
:102040006800983038F09E3040F0963148F4ECE665
:10205000F0E008C0EDE6F0E005C0EBE6F0E002C01D
:10206000E0E0F0E04081983030F481E001C0880F7A
:102070009A95EAF70EC0292F30E09E3018F42850C8
:10208000310902C02E50310981E001C0880F2A9524
:10209000EAF7842B808380911E0490911F040E9494
:1020A000CD060E94630A6BE073E089E193E00E9431
:1020B000540B84E093E09093DD028093DC028AED80
:1020C00092E09093FD028093FC028091DA0290915D
:1020D000DB029C012F5F3F4FF901EE0FFF1FE4521F
:1020E000FD4F4DEF52E051834083FC01EE0FFF1F87
:1020F000E250FD4F4AEF52E051834083FC01EE0F66
:10210000FF1FE25DFC4F11821082F901E45EFC4F7B
:102110001082AC014D5F5F4FFA01EE0FFF1FE652D8
:10212000FD4F23EF32E031832083FC01EE0FFF1FD0
:10213000E050FD4F20EF32E031832083FC01EE0FB1
:10214000FF1FE05DFC4F11821082FC01E25EFC4F3C
:1021500010829C012C5F3F4FF901EE0FFF1FE652EA
:10216000FD4F69EE72E071836083FC01EE0FFF1F8B
:10217000EE5FFC4F66EE72E071836083FC01EE0F50
:10218000FF1FEE5CFC4F11821082FA01E45EFC4FEF
:1021900010824E5F5F4FFA01EE0FFF1FE652FD4FB8
:1021A0006FED72E071836083FC01EE0FFF1FEC5F47
:1021B000FC4F6CED72E071836083880F991FFC0106
:1021C000EC5CFC4F11821082F901E45EFC4F10823E
:1021D0005093DB024093DA0284E092E090932F0365
:1021E00080932E0381E080931D0320E032E0309342
:1021F00031032093300380931E032CEF31E03093A2
:1022000033032093320380931F0328EF31E0309390
:102210003503209334038093200381E00E94820BD6
:102220000E94160864E170E080E090E00E940F04D4
:10223000809108028111F1CF60E08DE00E94870358
:1022400001E010E092EEE92E91E0F92E20E2D22E8C
:102250008091290490912A040E949C0640E06CEC35
:102260008091290490912A040E942D064091240413
:1022700064E48091290490912A040E942D068091A3
:1022800026048823A9F0E0912504E950E33040F4C6
:10229000F0E0EE0FFF1FEC5FFE4F6081718102C026
:1022A0006EEE72E0072E000C880B990B0E940F0453
:1022B00080E00E947209609304027093050280938B
:1022C00006029093070281E00E9472096093000267
:1022D00070930102809302029093030282E00E94B5
:1022E00072096093FC017093FD018093FE0190934D
:1022F000FF0183E00E9472094B015C016093F801C9
:102300007093F9018093FA019093FB0120E030E093
:102310004EEF52EC6091040270910502809106022A
:10232000909107020E94DC14811108C010920402EF
:1023300010920502109206021092070220E030E08F
:102340004EEF52EC60910002709101028091020206
:10235000909103020E94DC14811108C010920002C7
:1023600010920102109202021092030220E030E06B
:102370004EEF52EC6091FC017091FD018091FE01E5
:102380009091FF010E94DC14811108C01092FC01A1
:102390001092FD011092FE011092FF0120E030E04A
:1023A0004EEF52ECC501B4010E94DC14811108C04B
:1023B0001092F8011092F9011092FA011092FB01AB
:1023C0000E9449040E9416080E9449044B015C01C6
:1023D00060E083E00E94D30362E084E00E94D303C4
:1023E0000E94630A85E094E00E943D0385E094E04A
:1023F0000E944C03892B61F40E944904DC01CB014B
:1024000088199909AA09BB090697A105B10570F3B6
:1024100085E094E00E944C0318161906F4F585E057
:1024200094E00E946303209101013091020128177A
:10243000390799F190930201809301012091F601EF
:102440003091F70180379105A1F0803E910529F583
:102450002330310511F12F5F3F4F3093F701209367
:10246000F60122303105C9F41092F7011092F601FD
:1024700014C02330310589F02230310529F410933E
:10248000F7010093F60109C0215031093093F7019B
:102490002093F601243031053CF78091F6019091AC
:1024A000F7018330910509F4C5C01092F50110922F
:1024B000F401009709F48DC0019709F0C1C0109292
:1024C000E2011092D20163E473E082EE91E00E9497
:1024D00042181092290260910402709105028091C5
:1024E0000602909107020E94800A69E272E082EE81
:1024F00091E00E9437186FE373E082EE91E00E9452
:1025000042186BE373E082EE91E00E944218109251
:102510002902609100027091010280910202909163
:1025200003020E94800A69E272E082EE91E00E945A
:10253000371868E373E082EE91E00E94421864E38A
:1025400073E082ED91E00E9442181092290260919E
:10255000FC017091FD018091FE019091FF010E94AC
:10256000800A69E272E082ED91E00E94371860E330
:1025700073E082ED91E00E9442186CE273E082ED1C
:1025800091E00E944218109229026091F801709126
:10259000F9018091FA019091FB010E94800A69E2A1
:1025A00072E082ED91E00E94371869E273E082EDFB
:1025B00091E00E944218F70101900020E9F731975D
:1025C000E25EF1404E2F22EE31E0A9E0B2E080E081
:1025D00005C065E673E083E793E030C0841720F41C
:1025E000F90190819C9301C0DC928F5F2F5F3F4F78
:1025F0001196803199F7E2EDF1E001900020E9F7C2
:102600003197E25DF1404E2F80E090E0DC01A75F62
:10261000BD4F841740F49C012E523E4FF90120819A
:1026200050962C9302C05096DC9201968031910511
:1026300069F706C067E473E085E593E00E94540BF8
:102640008091F2019091F30101969093F3018093B0
:10265000F201059744F081E00E94820B1092F30191
:102660001092F20103C080E00E94820B0E94490494
:1026700061E084E00E94D3030E942D09E9CD10930C
:10268000240442CC1092400210923F0288EE93E064
:10269000A0E0B0E08093410290934202A0934302F5
:1026A000B09344022EE031E030933E0220933D028D
:1026B00025EC30E030934A022093490224EC30E0CC
:1026C00030934C0220934B0220EC30E030934E02CA
:1026D00020934D0221EC30E03093500220934F02C2
:1026E00022EC30E0309352022093510226EC30E08D
:1026F00030935402209353021092560210925702C4
:1027000010925802109259021092480410924704F5
:102710008093490490934A04A0934B04B0934C04D3
:102720008EE191E0909346048093450460E082E05E
:102730000E94D303EDEAF4E0E491E0933704E9E981
:10274000F4E0E491F0E0EE0FFF1FE357FB4F8591BB
:10275000949190933904809338041092420410921B
:10276000440410924304E2E4F4E0129284E0EA3379
:10277000F807D9F786E193E0909336048093350407
:1027800087E394E090932A0480932904109228040C
:102790001092240489E08093250481E0809326042C
:1027A00080932704109208041092070488EE93E0A7
:1027B000A0E0B0E08093090490930A04A0930B0476
:1027C000B0930C048EE291E090930604809305048C
:1027D000109219041092180410921B0410921A04FB
:1027E00010921D0410921C0410921F0410921E04DB
:1027F0001092210410922004809122048E7F8093F5
:10280000220461E084E00E94D30361E084E00E943E
:102810008703EFEAF4E0E491E0931504EBE9F4E0D8
:10282000E491F0E0EE0FFF1FED57FB4F859194917F
:10283000909317048093160462E083E00E94D30310
:1028400083E080931104EEEAF4E0E491E093120453
:10285000EAE9F4E0E491F0E0EE0FFF1FE357FB4FED
:1028600085919491909314048093130410924C03D7
:102870001092DB021092DA021092040410924D03BF
:10288000089597FB072E16F4009407D077FD09D022
:102890000E94551407FC05D03EF4909581959F4FFA
:1028A0000895709561957F4F0895AA1BBB1B51E158
:1028B00007C0AA1FBB1FA617B70710F0A61BB70BB0
:1028C000881F991F5A95A9F780959095BC01CD0155
:1028D0000895EE0FFF1F0590F491E02D09945058D4
:1028E000BB27AA270E9487140C9401160E94F31597
:1028F00038F00E94FA1520F039F49F3F19F426F4BD
:102900000C94F0150EF4E095E7FB0C94EA15E92F12
:102910000E94121658F3BA176207730784079507C7
:1029200020F079F4A6F50C9434160EF4E0950B2EF5
:10293000BA2FA02D0B01B90190010C01CA01A00111
:102940001124FF27591B99F0593F50F4503E68F16C
:102950001A16F040A22F232F342F4427585FF3CFAD
:10296000469537952795A795F0405395C9F77EF47E
:102970001F16BA0B620B730B840BBAF09150A1F0C7
:10298000FF0FBB1F661F771F881FC2F70EC0BA0F4D
:10299000621F731F841F48F4879577956795B795D5
:1029A000F7959E3F08F0B0CF9395880F08F09927D0
:1029B000EE0F9795879508950E94C61508F481E05B
:1029C00008950E94F5140C9401160E94FA1558F00F
:1029D0000E94F31540F029F45F3F29F00C94EA15AA
:1029E00051110C9435160C94F0150E94121668F3D0
:1029F0009923B1F3552391F3951B550BBB27AA27B8
:102A000062177307840738F09F5F5F4F220F331FF1
:102A1000441FAA1FA9F335D00E2E3AF0E0E832D0B9
:102A200091505040E695001CCAF72BD0FE2F29D0BC
:102A3000660F771F881FBB1F261737074807AB078E
:102A4000B0E809F0BB0B802DBF01FF2793585F4F03
:102A50003AF09E3F510578F00C94EA150C94351627
:102A60005F3FE4F3983ED4F3869577956795B795E5
:102A7000F7959F5FC9F7880F911D9695879597F9F0
:102A80000895E1E0660F771F881FBB1F6217730769
:102A90008407BA0720F0621B730B840BBA0BEE1F7E
:102AA00088F7E09508950E945A156894B1110C9426
:102AB000351608950E941A1688F09F5798F0B92F7E
:102AC0009927B751B0F0E1F0660F771F881F991F63
:102AD0001AF0BA95C9F714C0B13091F00E943416BB
:102AE000B1E008950C943416672F782F8827B85FCB
:102AF00039F0B93FCCF3869577956795B395D9F7BB
:102B00003EF490958095709561957F4F8F4F9F4FC4
:102B10000895E89409C097FB3EF4909580957095D0
:102B200061957F4F8F4F9F4F9923A9F0F92F96E919
:102B3000BB279395F695879577956795B795F1118E
:102B4000F8CFFAF4BB0F11F460FF1BC06F5F7F4F2B
:102B50008F4F9F4F16C0882311F096E911C077233D
:102B600021F09EE8872F762F05C0662371F096E846
:102B7000862F70E060E02AF09A95660F771F881F15
:102B8000DAF7880F9695879597F90895990F0008B9
:102B9000550FAA0BE0E8FEEF16161706E807F9072F
:102BA000C0F012161306E407F50798F0621B730BCA
:102BB000840B950B39F40A2661F0232B242B252B4B
:102BC00021F408950A2609F4A140A6958FEF811DEE
:102BD000811D089597F99F6780E870E060E008958F
:102BE0009FEF80EC089500240A9416161706180625
:102BF0000906089500240A94121613061406050601
:102C00000895092E0394000C11F4882352F0BB0F91
:102C100040F4BF2B11F460FF04C06F5F7F4F8F4FF4
:102C20009F4F089557FD9058440F551F59F05F3F2F
:102C300071F04795880F97FB991F61F09F3F79F0DE
:102C400087950895121613061406551FF2CF469560
:102C5000F1DF08C0161617061806991FF1CF8695E2
:102C60007105610508940895E894BB2766277727C6
:102C7000CB0197F908950E94C61508F48FEF0895C7
:102C80000E9453160C9401160E94F31538F00E940E
:102C9000FA1520F0952311F00C94EA150C94F01518
:102CA00011240C9435160E94121670F3959FC1F3EF
:102CB000950F50E0551F629FF001729FBB27F00DEA
:102CC000B11D639FAA27F00DB11DAA1F649F66273F
:102CD000B00DA11D661F829F2227B00DA11D621F8E
:102CE000739FB00DA11D621F839FA00D611D221F48
:102CF000749F3327A00D611D231F849F600D211D2C
:102D0000822F762F6A2F11249F5750409AF0F1F0AE
:102D100088234AF0EE0FFF1FBB1F661F771F881F17
:102D200091505040A9F79E3F510580F00C94EA1550
:102D30000C9435165F3FE4F3983ED4F3869577956F
:102D40006795B795F795E7959F5FC1F7FE2B880FBD
:102D5000911D9695879597F90895FA01EE0FFF1F3B
:102D6000309621053105A1F16115710561F48038B6
:102D7000BFE39B0749F168949038810561F0803882
:102D8000BFEF9B0741F099234AF5FF3FE10531056D
:102D9000210519F1E8940894E795D901AA2329F4AB
:102DA000AB2FBE2FF85FD0F310C0FF5F70F4A69575
:102DB000E0F7F73950F019F0FF3A38F49F779F9316
:102DC0000DD00F9007FC9058089546F00C94F01524
:102DD00060E070E080E89FE308954FE79F775F939E
:102DE0004F933F932F930E94A8172F913F914F919C
:102DF0005F910E9440160C94051729F416F00C946C
:102E0000EA150C9434160C94F0150E941A16A8F3C7
:102E10009638A0F707F80F92E8942BE33AEA48EBCC
:102E20005FE70E9456160F920F920F924DB75EB752
:102E30000F920E94F017E8E6F0E00E9437174F91DA
:102E40005F91EF91FF91E595EE1FFF1F49F0FE574F
:102E5000E0684427EE0F441FFA95E1F74195550BC2
:102E60000E946A170F9007FE0C945E170895DF9377
:102E7000CF931F930F93FF92EF92DF927B018C0110
:102E8000689406C0DA2EEF010E945316FE01E89402
:102E9000A5912591359145915591A6F3EF010E9499
:102EA0008714FE019701A801DA9469F7DF90EF908B
:102EB000FF900F911F91CF91DF9108959B01AC017D
:102EC00060E070E080E89FE30C94E1140C94EA1554
:102ED0000C9424180E941A16D8F39923C9F3940F5E
:102EE000511DA3F39150504094F059F0882332F0D3
:102EF000660F771F881F91505040C1F79E3F5105C4
:102F00002CF7880F911D9695879597F908955F3F47
:102F1000ACF0983E9CF0BB27869577956795B79562
:102F200008F4B1609395C1F7BB0F58F711F460FF37
:102F3000E8CF6F5F7F4F8F4F9F4FE3CF0C943516D5
:102F400016F00C9424180C94F01568940C94EA155F
:102F50000E941A16A8F39923C1F3AEF3DF93CF931F
:102F60001F930F93FF92C92FDD2788232AF0219703
:102F7000660F771F881FDAF720E030E040E85FEB4C
:102F80009FE3883920F0803E38F021968F770E94A9
:102F90007014E0E9F0E004C00E947014EDEBF0E082
:102FA0000E9437178B01BE01EC01FB2E6F57710990
:102FB0007595771F880B990B0E948B1528E132E7D6
:102FC00041E35FE30E945316AF2D9801AE01FF90DD
:102FD0000F911F91CF91DF910E9487140C940116DD
:102FE000FA01DC01AA0FBB1F9B01AC01BF5728F4FB
:102FF000222733274427507820C0B75190F4AB2FB5
:103000000024469537952795011CA395D2F30020FF
:1030100071F0220F331F441FB395DAF30ED00C94D6
:103020006F1461307105A0E88A07B94630F49B013E
:10303000AC016627772788279078309621F0208387
:1030400031834283538308959F3F31F0915020F4A0
:10305000879577956795B795880F911D9695879574
:1030600097F9089581E090E0F8940C948918FB0199
:10307000DC010D900020E9F7119701900D920020DE
:10308000E1F70895FB01DC010D900020E9F71197AD
:1030900005900D920020E1F70895FB01DC010590F9
:1030A0000D920020E1F70895BB274A3031F49923AF
:1030B00022F4BDE2909581959F4F0C946018BB2738
:1030C000FB015527AA27880F991FAA1FA41710F0E4
:1030D000A41B83955051B9F7A05DAA3308F0A95DF0
:1030E000A193009779F7B111B1931192CB010C9490
:1030F0007918DC01FC01672F71917723E1F7329792
:1031000004C07C916D9370836291AE17BF07C8F3C2
:10311000089512E0C1E6D2E004C0FE010E946914E5
:0C3120002196C236D107C9F7F894FFCF02
:10312C0001F000065E00BC00770100000000C4083E
:10313C0040088D086B087F080B0900000000050390
:10314C00F102EA02E702E402E30200000000D40606
:0A315C0040084C03630323033D0306
:00000001FF
